{
  "address": "0xe7f1725E7734CE288F8367e1Bb143E90bb3F0512",
  "abi": [
    {
      "inputs": [
        {
          "internalType": "contract AggregatorV3Interface",
          "name": "priceFeedAddress",
          "type": "address"
        }
      ],
      "stateMutability": "nonpayable",
      "type": "constructor"
    },
    {
      "inputs": [],
      "name": "FundMe__NotOwner",
      "type": "error"
    },
    {
      "stateMutability": "payable",
      "type": "fallback"
    },
    {
      "inputs": [],
      "name": "MINIMUM_USD",
      "outputs": [
        {
          "internalType": "uint256",
          "name": "",
          "type": "uint256"
        }
      ],
      "stateMutability": "view",
      "type": "function"
    },
    {
      "inputs": [],
      "name": "fund",
      "outputs": [],
      "stateMutability": "payable",
      "type": "function"
    },
    {
      "inputs": [],
      "name": "getVersion",
      "outputs": [
        {
          "internalType": "uint256",
          "name": "",
          "type": "uint256"
        }
      ],
      "stateMutability": "view",
      "type": "function"
    },
    {
      "inputs": [],
      "name": "i_owner",
      "outputs": [
        {
          "internalType": "address",
          "name": "",
          "type": "address"
        }
      ],
      "stateMutability": "view",
      "type": "function"
    },
    {
      "inputs": [
        {
          "internalType": "address",
          "name": "",
          "type": "address"
        }
      ],
      "name": "s_addressToAmountFunded",
      "outputs": [
        {
          "internalType": "uint256",
          "name": "",
          "type": "uint256"
        }
      ],
      "stateMutability": "view",
      "type": "function"
    },
    {
      "inputs": [
        {
          "internalType": "uint256",
          "name": "",
          "type": "uint256"
        }
      ],
      "name": "s_funders",
      "outputs": [
        {
          "internalType": "address",
          "name": "",
          "type": "address"
        }
      ],
      "stateMutability": "view",
      "type": "function"
    },
    {
      "inputs": [],
      "name": "s_priceFeed",
      "outputs": [
        {
          "internalType": "contract AggregatorV3Interface",
          "name": "",
          "type": "address"
        }
      ],
      "stateMutability": "view",
      "type": "function"
    },
    {
      "inputs": [],
      "name": "withdraw",
      "outputs": [],
      "stateMutability": "payable",
      "type": "function"
    },
    {
      "stateMutability": "payable",
      "type": "receive"
    }
  ],
  "transactionHash": "0x166449630db9dab567471af6cc1b9817df1f24b919453eccad8ff321bbdbfb67",
  "args": [
    "0x5FbDB2315678afecb367f032d93F642f64180aa3"
  ],
  "numDeployments": 1,
  "solcInputHash": "95270f8b561bee45e17607b312ae504d",
  "bytecode": "0x60a06040523480156200001157600080fd5b506040516200140438038062001404833981810160405281019062000037919062000133565b3373ffffffffffffffffffffffffffffffffffffffff1660808173ffffffffffffffffffffffffffffffffffffffff1660601b81525050806000806101000a81548173ffffffffffffffffffffffffffffffffffffffff021916908373ffffffffffffffffffffffffffffffffffffffff1602179055505062000165565b600080fd5b600073ffffffffffffffffffffffffffffffffffffffff82169050919050565b6000620000e782620000ba565b9050919050565b6000620000fb82620000da565b9050919050565b6200010d81620000ee565b81146200011957600080fd5b50565b6000815190506200012d8162000102565b92915050565b6000602082840312156200014c576200014b620000b5565b5b60006200015c848285016200011c565b91505092915050565b60805160601c6112796200018b60003960008181610435015261076801526112796000f3fe60806040526004361061007f5760003560e01c806354861af71161004e57806354861af7146101355780636b69a59214610172578063b60d42881461019d578063dba6335f146101a75761008e565b80630d8e6e2c146100985780630ec3b027146100c35780631bf6132d146100ee5780633ccfd60b1461012b5761008e565b3661008e5761008c6101d2565b005b6100966101d2565b005b3480156100a457600080fd5b506100ad61034d565b6040516100ba91906109e8565b60405180910390f35b3480156100cf57600080fd5b506100d86103f7565b6040516100e59190610a82565b60405180910390f35b3480156100fa57600080fd5b5061011560048036038101906101109190610ae0565b61041b565b60405161012291906109e8565b60405180910390f35b610133610433565b005b34801561014157600080fd5b5061015c60048036038101906101579190610b39565b61071a565b6040516101699190610b75565b60405180910390f35b34801561017e57600080fd5b50610187610759565b60405161019491906109e8565b60405180910390f35b6101a56101d2565b005b3480156101b357600080fd5b506101bc610766565b6040516101c99190610b75565b60405180910390f35b6101f360405180606001604052806028815260200161121c6028913961078a565b6802b5e3af16b188000061023060008054906101000a900473ffffffffffffffffffffffffffffffffffffffff163461082390919063ffffffff16565b1015610271576040517f08c379a000000000000000000000000000000000000000000000000000000000815260040161026890610bed565b60405180910390fd5b6102926040518060600160405280603181526020016111eb6031913961078a565b34600160003373ffffffffffffffffffffffffffffffffffffffff1673ffffffffffffffffffffffffffffffffffffffff16815260200190815260200160002060008282546102e19190610c3c565b925050819055506002339080600181540180825580915050600190039060005260206000200160009091909190916101000a81548173ffffffffffffffffffffffffffffffffffffffff021916908373ffffffffffffffffffffffffffffffffffffffff160217905550565b60008060008054906101000a900473ffffffffffffffffffffffffffffffffffffffff1690508073ffffffffffffffffffffffffffffffffffffffff166354fd4d506040518163ffffffff1660e01b815260040160206040518083038186803b1580156103b957600080fd5b505afa1580156103cd573d6000803e3d6000fd5b505050506040513d601f19601f820116820180604052508101906103f19190610ca7565b91505090565b60008054906101000a900473ffffffffffffffffffffffffffffffffffffffff1681565b60016020528060005260406000206000915090505481565b7f000000000000000000000000000000000000000000000000000000000000000073ffffffffffffffffffffffffffffffffffffffff163373ffffffffffffffffffffffffffffffffffffffff16146104b8576040517f579610db00000000000000000000000000000000000000000000000000000000815260040160405180910390fd5b6000600280548060200260200160405190810160405280929190818152602001828054801561053c57602002820191906000526020600020905b8160009054906101000a900473ffffffffffffffffffffffffffffffffffffffff1673ffffffffffffffffffffffffffffffffffffffff16815260200190600101908083116104f2575b505050505090506105646040518060600160405280602d81526020016111be602d913961078a565b60005b81518110156105e857600082828151811061058557610584610cd4565b5b602002602001015190506000600160008373ffffffffffffffffffffffffffffffffffffffff1673ffffffffffffffffffffffffffffffffffffffff168152602001908152602001600020819055505080806105e090610d03565b915050610567565b50600067ffffffffffffffff81111561060457610603610d4c565b5b6040519080825280602002602001820160405280156106325781602001602082028036833780820191505090505b5060029080519060200190610648929190610928565b5060003373ffffffffffffffffffffffffffffffffffffffff164760405161066f90610dac565b60006040518083038185875af1925050503d80600081146106ac576040519150601f19603f3d011682016040523d82523d6000602084013e6106b1565b606091505b50509050806106f5576040517f08c379a00000000000000000000000000000000000000000000000000000000081526004016106ec90610e0d565b60405180910390fd5b61071660405180606001604052806022815260200161119c6022913961078a565b5050565b6002818154811061072a57600080fd5b906000526020600020016000915054906101000a900473ffffffffffffffffffffffffffffffffffffffff1681565b6802b5e3af16b188000081565b7f000000000000000000000000000000000000000000000000000000000000000081565b6108208160405160240161079e9190610eb5565b6040516020818303038152906040527f41304fac000000000000000000000000000000000000000000000000000000007bffffffffffffffffffffffffffffffffffffffffffffffffffffffff19166020820180517bffffffffffffffffffffffffffffffffffffffffffffffffffffffff838183161783525050505061085f565b50565b60008061082f83610888565b90506000670de0b6b3a764000085836108489190610ed7565b6108529190610f60565b9050809250505092915050565b60008151905060006a636f6e736f6c652e6c6f679050602083016000808483855afa5050505050565b6000808273ffffffffffffffffffffffffffffffffffffffff1663feaf968c6040518163ffffffff1660e01b815260040160a06040518083038186803b1580156108d157600080fd5b505afa1580156108e5573d6000803e3d6000fd5b505050506040513d601f19601f820116820180604052508101906109099190611009565b5050509150506402540be400816109209190611084565b915050919050565b8280548282559060005260206000209081019282156109a1579160200282015b828111156109a05782518260006101000a81548173ffffffffffffffffffffffffffffffffffffffff021916908373ffffffffffffffffffffffffffffffffffffffff16021790555091602001919060010190610948565b5b5090506109ae91906109b2565b5090565b5b808211156109cb5760008160009055506001016109b3565b5090565b6000819050919050565b6109e2816109cf565b82525050565b60006020820190506109fd60008301846109d9565b92915050565b600073ffffffffffffffffffffffffffffffffffffffff82169050919050565b6000819050919050565b6000610a48610a43610a3e84610a03565b610a23565b610a03565b9050919050565b6000610a5a82610a2d565b9050919050565b6000610a6c82610a4f565b9050919050565b610a7c81610a61565b82525050565b6000602082019050610a976000830184610a73565b92915050565b600080fd5b6000610aad82610a03565b9050919050565b610abd81610aa2565b8114610ac857600080fd5b50565b600081359050610ada81610ab4565b92915050565b600060208284031215610af657610af5610a9d565b5b6000610b0484828501610acb565b91505092915050565b610b16816109cf565b8114610b2157600080fd5b50565b600081359050610b3381610b0d565b92915050565b600060208284031215610b4f57610b4e610a9d565b5b6000610b5d84828501610b24565b91505092915050565b610b6f81610aa2565b82525050565b6000602082019050610b8a6000830184610b66565b92915050565b600082825260208201905092915050565b7f596f75206e65656420746f207370656e64206d6f726520455448210000000000600082015250565b6000610bd7601b83610b90565b9150610be282610ba1565b602082019050919050565b60006020820190508181036000830152610c0681610bca565b9050919050565b7f4e487b7100000000000000000000000000000000000000000000000000000000600052601160045260246000fd5b6000610c47826109cf565b9150610c52836109cf565b9250827fffffffffffffffffffffffffffffffffffffffffffffffffffffffffffffffff03821115610c8757610c86610c0d565b5b828201905092915050565b600081519050610ca181610b0d565b92915050565b600060208284031215610cbd57610cbc610a9d565b5b6000610ccb84828501610c92565b91505092915050565b7f4e487b7100000000000000000000000000000000000000000000000000000000600052603260045260246000fd5b6000610d0e826109cf565b91507fffffffffffffffffffffffffffffffffffffffffffffffffffffffffffffffff821415610d4157610d40610c0d565b5b600182019050919050565b7f4e487b7100000000000000000000000000000000000000000000000000000000600052604160045260246000fd5b600081905092915050565b50565b6000610d96600083610d7b565b9150610da182610d86565b600082019050919050565b6000610db782610d89565b9150819050919050565b7f43616c6c206661696c6564000000000000000000000000000000000000000000600082015250565b6000610df7600b83610b90565b9150610e0282610dc1565b602082019050919050565b60006020820190508181036000830152610e2681610dea565b9050919050565b600081519050919050565b60005b83811015610e56578082015181840152602081019050610e3b565b83811115610e65576000848401525b50505050565b6000601f19601f8301169050919050565b6000610e8782610e2d565b610e918185610b90565b9350610ea1818560208601610e38565b610eaa81610e6b565b840191505092915050565b60006020820190508181036000830152610ecf8184610e7c565b905092915050565b6000610ee2826109cf565b9150610eed836109cf565b9250817fffffffffffffffffffffffffffffffffffffffffffffffffffffffffffffffff0483118215151615610f2657610f25610c0d565b5b828202905092915050565b7f4e487b7100000000000000000000000000000000000000000000000000000000600052601260045260246000fd5b6000610f6b826109cf565b9150610f76836109cf565b925082610f8657610f85610f31565b5b828204905092915050565b600069ffffffffffffffffffff82169050919050565b610fb081610f91565b8114610fbb57600080fd5b50565b600081519050610fcd81610fa7565b92915050565b6000819050919050565b610fe681610fd3565b8114610ff157600080fd5b50565b60008151905061100381610fdd565b92915050565b600080600080600060a0868803121561102557611024610a9d565b5b600061103388828901610fbe565b955050602061104488828901610ff4565b945050604061105588828901610c92565b935050606061106688828901610c92565b925050608061107788828901610fbe565b9150509295509295909350565b600061108f82610fd3565b915061109a83610fd3565b9250827f7fffffffffffffffffffffffffffffffffffffffffffffffffffffffffffffff04821160008413600084131616156110d9576110d8610c0d565b5b817f8000000000000000000000000000000000000000000000000000000000000000058312600084126000841316161561111657611115610c0d565b5b827f8000000000000000000000000000000000000000000000000000000000000000058212600084136000841216161561115357611152610c0d565b5b827f7fffffffffffffffffffffffffffffffffffffffffffffffffffffffffffffff05821260008412600084121616156111905761118f610c0d565b5b82820290509291505056fe4f776e657220636f6e6669726d65642e2e2e2046756e64732077697468647261776e5769746864726177616c20726571756573742072656365697665642c20636f6e6669726d696e67206f776e6572526571756972656d656e74732076616c6964617465642e2e2e2e2046756e64696e6720736d61727420636f6e747261637452656365697665642066756e6420726571756573742c20636865636b696e6720696e666f732e2e2ea264697066735822122037f1d881cffc6e885c06cd45c260e7c0a9498eb4f91dc242a92d0b8366cbb63764736f6c63430008080033",
  "devdoc": {
    "author": "Henson Kudi Amah - FCC Course by Patrick",
    "details": "This smart contract implements pricefeeds as our library",
    "kind": "dev",
    "methods": {},
    "title": "A smart contract for crowd funding.",
    "version": 1
  },
  "userdoc": {
    "kind": "user",
    "methods": {
      "fund()": {
        "notice": "This function funds the smart contract and update the funders list with the amount funded"
      },
      "getVersion()": {
        "notice": "This function gets the version of the AggregatorV3Interface"
      },
      "withdraw()": {
        "notice": "This function lets the owner of the smart contract to withdraw the funds of the smart contract"
      }
    },
    "notice": "This is a sample smart contract for crowd funding",
    "version": 1
  },
  "storageLayout": {
    "storage": [
      {
        "astId": 59,
        "contract": "contracts/FundMe.sol:FundMe",
        "label": "s_priceFeed",
        "offset": 0,
        "slot": "0",
        "type": "t_contract(AggregatorV3Interface)45"
      },
      {
        "astId": 63,
        "contract": "contracts/FundMe.sol:FundMe",
        "label": "s_addressToAmountFunded",
        "offset": 0,
        "slot": "1",
        "type": "t_mapping(t_address,t_uint256)"
      },
      {
        "astId": 66,
        "contract": "contracts/FundMe.sol:FundMe",
        "label": "s_funders",
        "offset": 0,
        "slot": "2",
        "type": "t_array(t_address)dyn_storage"
      }
    ],
    "types": {
      "t_address": {
        "encoding": "inplace",
        "label": "address",
        "numberOfBytes": "20"
      },
      "t_array(t_address)dyn_storage": {
        "base": "t_address",
        "encoding": "dynamic_array",
        "label": "address[]",
        "numberOfBytes": "32"
      },
      "t_contract(AggregatorV3Interface)45": {
        "encoding": "inplace",
        "label": "contract AggregatorV3Interface",
        "numberOfBytes": "20"
      },
      "t_mapping(t_address,t_uint256)": {
        "encoding": "mapping",
        "key": "t_address",
        "label": "mapping(address => uint256)",
        "numberOfBytes": "32",
        "value": "t_uint256"
      },
      "t_uint256": {
        "encoding": "inplace",
        "label": "uint256",
        "numberOfBytes": "32"
      }
    }
  }
}